{
  "contractName": "Tv1",
  "abi": [
    {
      "anonymous": false,
      "inputs": [
        {
          "indexed": true,
          "internalType": "address",
          "name": "_owner",
          "type": "address"
        },
        {
          "indexed": true,
          "internalType": "address",
          "name": "_spender",
          "type": "address"
        },
        {
          "indexed": false,
          "internalType": "uint256",
          "name": "_value",
          "type": "uint256"
        }
      ],
      "name": "Approval",
      "type": "event"
    },
    {
      "anonymous": false,
      "inputs": [
        {
          "indexed": true,
          "internalType": "address",
          "name": "_from",
          "type": "address"
        },
        {
          "indexed": true,
          "internalType": "address",
          "name": "_to",
          "type": "address"
        },
        {
          "indexed": false,
          "internalType": "uint256",
          "name": "_value",
          "type": "uint256"
        }
      ],
      "name": "Transfer",
      "type": "event"
    },
    {
      "inputs": [
        {
          "internalType": "address",
          "name": "",
          "type": "address"
        },
        {
          "internalType": "address",
          "name": "",
          "type": "address"
        }
      ],
      "name": "allowance",
      "outputs": [
        {
          "internalType": "uint256",
          "name": "",
          "type": "uint256"
        }
      ],
      "stateMutability": "view",
      "type": "function",
      "constant": true
    },
    {
      "inputs": [
        {
          "internalType": "address",
          "name": "",
          "type": "address"
        }
      ],
      "name": "balanceOf",
      "outputs": [
        {
          "internalType": "uint256",
          "name": "",
          "type": "uint256"
        }
      ],
      "stateMutability": "view",
      "type": "function",
      "constant": true
    },
    {
      "inputs": [],
      "name": "decimals",
      "outputs": [
        {
          "internalType": "uint8",
          "name": "",
          "type": "uint8"
        }
      ],
      "stateMutability": "view",
      "type": "function",
      "constant": true
    },
    {
      "inputs": [],
      "name": "name",
      "outputs": [
        {
          "internalType": "string",
          "name": "",
          "type": "string"
        }
      ],
      "stateMutability": "view",
      "type": "function",
      "constant": true
    },
    {
      "inputs": [],
      "name": "symbol",
      "outputs": [
        {
          "internalType": "string",
          "name": "",
          "type": "string"
        }
      ],
      "stateMutability": "view",
      "type": "function",
      "constant": true
    },
    {
      "inputs": [],
      "name": "totalSupply",
      "outputs": [
        {
          "internalType": "uint256",
          "name": "",
          "type": "uint256"
        }
      ],
      "stateMutability": "view",
      "type": "function",
      "constant": true
    },
    {
      "inputs": [
        {
          "internalType": "address",
          "name": "",
          "type": "address"
        }
      ],
      "name": "whitelist",
      "outputs": [
        {
          "internalType": "bool",
          "name": "",
          "type": "bool"
        }
      ],
      "stateMutability": "view",
      "type": "function",
      "constant": true
    },
    {
      "inputs": [],
      "name": "initialize",
      "outputs": [],
      "stateMutability": "nonpayable",
      "type": "function"
    },
    {
      "inputs": [
        {
          "internalType": "address",
          "name": "_to",
          "type": "address"
        },
        {
          "internalType": "uint256",
          "name": "_value",
          "type": "uint256"
        }
      ],
      "name": "transfer",
      "outputs": [
        {
          "internalType": "bool",
          "name": "success",
          "type": "bool"
        }
      ],
      "stateMutability": "nonpayable",
      "type": "function"
    },
    {
      "inputs": [
        {
          "internalType": "address",
          "name": "_spender",
          "type": "address"
        },
        {
          "internalType": "uint256",
          "name": "_value",
          "type": "uint256"
        }
      ],
      "name": "approve",
      "outputs": [
        {
          "internalType": "bool",
          "name": "success",
          "type": "bool"
        }
      ],
      "stateMutability": "nonpayable",
      "type": "function"
    },
    {
      "inputs": [
        {
          "internalType": "address",
          "name": "_from",
          "type": "address"
        },
        {
          "internalType": "address",
          "name": "_to",
          "type": "address"
        },
        {
          "internalType": "uint256",
          "name": "_value",
          "type": "uint256"
        }
      ],
      "name": "transferFromfunction",
      "outputs": [
        {
          "internalType": "bool",
          "name": "success",
          "type": "bool"
        }
      ],
      "stateMutability": "nonpayable",
      "type": "function"
    },
    {
      "inputs": [
        {
          "internalType": "address",
          "name": "_newEntry",
          "type": "address"
        }
      ],
      "name": "addWhitelist",
      "outputs": [],
      "stateMutability": "nonpayable",
      "type": "function"
    },
    {
      "inputs": [
        {
          "internalType": "address",
          "name": "_newEntry",
          "type": "address"
        }
      ],
      "name": "removeWhitelist",
      "outputs": [],
      "stateMutability": "nonpayable",
      "type": "function"
    },
    {
      "inputs": [
        {
          "internalType": "address",
          "name": "_whitelistedAddress",
          "type": "address"
        }
      ],
      "name": "verifyUser",
      "outputs": [
        {
          "internalType": "bool",
          "name": "",
          "type": "bool"
        }
      ],
      "stateMutability": "view",
      "type": "function",
      "constant": true
    }
  ],
  "bytecode": "0x608060405234801561001057600080fd5b5061151a806100206000396000f3fe608060405234801561001057600080fd5b50600436106100ea5760003560e01c80638129fc1c1161008c578063a9059cbb11610066578063a9059cbb1461024d578063dd62ed3e1461027d578063e1631594146102ad578063f80f5dd5146102dd576100ea565b80638129fc1c146101f557806395d89b41146101ff5780639b19251a1461021d576100ea565b8063313ce567116100c8578063313ce5671461015b5780634d8131201461017957806370a08231146101a957806378c8cda7146101d9576100ea565b806306fdde03146100ef578063095ea7b31461010d57806318160ddd1461013d575b600080fd5b6100f76102f9565b6040516101049190610e16565b60405180910390f35b61012760048036038101906101229190610ed1565b610387565b6040516101349190610f2c565b60405180910390f35b610145610479565b6040516101529190610f56565b60405180910390f35b61016361047f565b6040516101709190610f8d565b60405180910390f35b610193600480360381019061018e9190610fa8565b610492565b6040516101a09190610f2c565b60405180910390f35b6101c360048036038101906101be9190610fa8565b6104ed565b6040516101d09190610f56565b60405180910390f35b6101f360048036038101906101ee9190610fa8565b610505565b005b6101fd610683565b005b6102076107ca565b6040516102149190610e16565b60405180910390f35b61023760048036038101906102329190610fa8565b610858565b6040516102449190610f2c565b60405180910390f35b61026760048036038101906102629190610ed1565b610878565b6040516102749190610f2c565b60405180910390f35b61029760048036038101906102929190610fd5565b6109e1565b6040516102a49190610f56565b60405180910390f35b6102c760048036038101906102c29190611015565b610a06565b6040516102d49190610f2c565b60405180910390f35b6102f760048036038101906102f29190610fa8565b610c8c565b005b6000805461030690611097565b80601f016020809104026020016040519081016040528092919081815260200182805461033290611097565b801561037f5780601f106103545761010080835404028352916020019161037f565b820191906000526020600020905b81548152906001019060200180831161036257829003601f168201915b505050505081565b600081600560003373ffffffffffffffffffffffffffffffffffffffff1673ffffffffffffffffffffffffffffffffffffffff16815260200190815260200160002060008573ffffffffffffffffffffffffffffffffffffffff1673ffffffffffffffffffffffffffffffffffffffff168152602001908152602001600020819055508273ffffffffffffffffffffffffffffffffffffffff163373ffffffffffffffffffffffffffffffffffffffff167f8c5be1e5ebec7d5bd14f71427d1e84f3dd0314c0f7b2291e5b200ac8c7c3b925846040516104679190610f56565b60405180910390a36001905092915050565b60025481565b600360009054906101000a900460ff1681565b600080600660008473ffffffffffffffffffffffffffffffffffffffff1673ffffffffffffffffffffffffffffffffffffffff16815260200190815260200160002060009054906101000a900460ff16905080915050919050565b60046020528060005260406000206000915090505481565b61050d610d7e565b73ffffffffffffffffffffffffffffffffffffffff16600360019054906101000a900473ffffffffffffffffffffffffffffffffffffffff1673ffffffffffffffffffffffffffffffffffffffff161461059c576040517f08c379a000000000000000000000000000000000000000000000000000000000815260040161059390611114565b60405180910390fd5b600660008273ffffffffffffffffffffffffffffffffffffffff1673ffffffffffffffffffffffffffffffffffffffff16815260200190815260200160002060009054906101000a900460ff16610628576040517f08c379a000000000000000000000000000000000000000000000000000000000815260040161061f90611180565b60405180910390fd5b6000600660008373ffffffffffffffffffffffffffffffffffffffff1673ffffffffffffffffffffffffffffffffffffffff16815260200190815260200160002060006101000a81548160ff02191690831515021790555050565b600254600460003373ffffffffffffffffffffffffffffffffffffffff1673ffffffffffffffffffffffffffffffffffffffff168152602001908152602001600020819055506040518060400160405280600a81526020017f4441707020546f6b656e000000000000000000000000000000000000000000008152506000908161070d919061137b565b506040518060400160405280600481526020017f444150500000000000000000000000000000000000000000000000000000000081525060019081610752919061137b565b5069d3c21bcecceda10000006002819055506012600360006101000a81548160ff021916908360ff160217905550610788610d7e565b600360016101000a81548173ffffffffffffffffffffffffffffffffffffffff021916908373ffffffffffffffffffffffffffffffffffffffff160217905550565b600180546107d790611097565b80601f016020809104026020016040519081016040528092919081815260200182805461080390611097565b80156108505780601f1061082557610100808354040283529160200191610850565b820191906000526020600020905b81548152906001019060200180831161083357829003601f168201915b505050505081565b60066020528060005260406000206000915054906101000a900460ff1681565b600081600460003373ffffffffffffffffffffffffffffffffffffffff1673ffffffffffffffffffffffffffffffffffffffff1681526020019081526020016000205410156108c657600080fd5b81600460003373ffffffffffffffffffffffffffffffffffffffff1673ffffffffffffffffffffffffffffffffffffffff1681526020019081526020016000206000828254610915919061147c565b9250508190555081600460008573ffffffffffffffffffffffffffffffffffffffff1673ffffffffffffffffffffffffffffffffffffffff168152602001908152602001600020600082825461096b91906114b0565b925050819055508273ffffffffffffffffffffffffffffffffffffffff163373ffffffffffffffffffffffffffffffffffffffff167fddf252ad1be2c89b69c2b068fc378daa952ba7f163c4a11628f55a4df523b3ef846040516109cf9190610f56565b60405180910390a36001905092915050565b6005602052816000526040600020602052806000526040600020600091509150505481565b6000600460008573ffffffffffffffffffffffffffffffffffffffff1673ffffffffffffffffffffffffffffffffffffffff16815260200190815260200160002054821115610a5457600080fd5b600560008573ffffffffffffffffffffffffffffffffffffffff1673ffffffffffffffffffffffffffffffffffffffff16815260200190815260200160002060003373ffffffffffffffffffffffffffffffffffffffff1673ffffffffffffffffffffffffffffffffffffffff16815260200190815260200160002054821115610add57600080fd5b81600460008673ffffffffffffffffffffffffffffffffffffffff1673ffffffffffffffffffffffffffffffffffffffff1681526020019081526020016000206000828254610b2c919061147c565b9250508190555081600460008573ffffffffffffffffffffffffffffffffffffffff1673ffffffffffffffffffffffffffffffffffffffff1681526020019081526020016000206000828254610b8291906114b0565b9250508190555081600560008673ffffffffffffffffffffffffffffffffffffffff1673ffffffffffffffffffffffffffffffffffffffff16815260200190815260200160002060003373ffffffffffffffffffffffffffffffffffffffff1673ffffffffffffffffffffffffffffffffffffffff1681526020019081526020016000206000828254610c15919061147c565b925050819055508273ffffffffffffffffffffffffffffffffffffffff168473ffffffffffffffffffffffffffffffffffffffff167fddf252ad1be2c89b69c2b068fc378daa952ba7f163c4a11628f55a4df523b3ef84604051610c799190610f56565b60405180910390a3600190509392505050565b610c94610d7e565b73ffffffffffffffffffffffffffffffffffffffff16600360019054906101000a900473ffffffffffffffffffffffffffffffffffffffff1673ffffffffffffffffffffffffffffffffffffffff1614610d23576040517f08c379a0000000000000000000000000000000000000000000000000000000008152600401610d1a90611114565b60405180910390fd5b6001600660008373ffffffffffffffffffffffffffffffffffffffff1673ffffffffffffffffffffffffffffffffffffffff16815260200190815260200160002060006101000a81548160ff02191690831515021790555050565b600033905090565b600081519050919050565b600082825260208201905092915050565b60005b83811015610dc0578082015181840152602081019050610da5565b60008484015250505050565b6000601f19601f8301169050919050565b6000610de882610d86565b610df28185610d91565b9350610e02818560208601610da2565b610e0b81610dcc565b840191505092915050565b60006020820190508181036000830152610e308184610ddd565b905092915050565b600080fd5b600073ffffffffffffffffffffffffffffffffffffffff82169050919050565b6000610e6882610e3d565b9050919050565b610e7881610e5d565b8114610e8357600080fd5b50565b600081359050610e9581610e6f565b92915050565b6000819050919050565b610eae81610e9b565b8114610eb957600080fd5b50565b600081359050610ecb81610ea5565b92915050565b60008060408385031215610ee857610ee7610e38565b5b6000610ef685828601610e86565b9250506020610f0785828601610ebc565b9150509250929050565b60008115159050919050565b610f2681610f11565b82525050565b6000602082019050610f416000830184610f1d565b92915050565b610f5081610e9b565b82525050565b6000602082019050610f6b6000830184610f47565b92915050565b600060ff82169050919050565b610f8781610f71565b82525050565b6000602082019050610fa26000830184610f7e565b92915050565b600060208284031215610fbe57610fbd610e38565b5b6000610fcc84828501610e86565b91505092915050565b60008060408385031215610fec57610feb610e38565b5b6000610ffa85828601610e86565b925050602061100b85828601610e86565b9150509250929050565b60008060006060848603121561102e5761102d610e38565b5b600061103c86828701610e86565b935050602061104d86828701610e86565b925050604061105e86828701610ebc565b9150509250925092565b7f4e487b7100000000000000000000000000000000000000000000000000000000600052602260045260246000fd5b600060028204905060018216806110af57607f821691505b6020821081036110c2576110c1611068565b5b50919050565b7f4f776e61626c653a2063616c6c6572206973206e6f7420746865206f776e6572600082015250565b60006110fe602083610d91565b9150611109826110c8565b602082019050919050565b6000602082019050818103600083015261112d816110f1565b9050919050565b7f50726576696f7573206e6f7420696e2077686974656c69737400000000000000600082015250565b600061116a601983610d91565b915061117582611134565b602082019050919050565b600060208201905081810360008301526111998161115d565b9050919050565b7f4e487b7100000000000000000000000000000000000000000000000000000000600052604160045260246000fd5b60008190508160005260206000209050919050565b60006020601f8301049050919050565b600082821b905092915050565b6000600883026112317fffffffffffffffffffffffffffffffffffffffffffffffffffffffffffffffff826111f4565b61123b86836111f4565b95508019841693508086168417925050509392505050565b6000819050919050565b600061127861127361126e84610e9b565b611253565b610e9b565b9050919050565b6000819050919050565b6112928361125d565b6112a661129e8261127f565b848454611201565b825550505050565b600090565b6112bb6112ae565b6112c6818484611289565b505050565b5b818110156112ea576112df6000826112b3565b6001810190506112cc565b5050565b601f82111561132f57611300816111cf565b611309846111e4565b81016020851015611318578190505b61132c611324856111e4565b8301826112cb565b50505b505050565b600082821c905092915050565b600061135260001984600802611334565b1980831691505092915050565b600061136b8383611341565b9150826002028217905092915050565b61138482610d86565b67ffffffffffffffff81111561139d5761139c6111a0565b5b6113a78254611097565b6113b28282856112ee565b600060209050601f8311600181146113e557600084156113d3578287015190505b6113dd858261135f565b865550611445565b601f1984166113f3866111cf565b60005b8281101561141b578489015182556001820191506020850194506020810190506113f6565b868310156114385784890151611434601f891682611341565b8355505b6001600288020188555050505b505050505050565b7f4e487b7100000000000000000000000000000000000000000000000000000000600052601160045260246000fd5b600061148782610e9b565b915061149283610e9b565b92508282039050818111156114aa576114a961144d565b5b92915050565b60006114bb82610e9b565b91506114c683610e9b565b92508282019050808211156114de576114dd61144d565b5b9291505056fea2646970667358221220d573eb6ed5a16522f9ee99211908aa23fc7db21e545b4048759479109f5a7fd964736f6c63430008100033",
  "immutableReferences": {},
  "source": "// SPDX-License-Identifier: MIT\n\n  \npragma solidity ^0.8.3;\ncontract Tv1   {\n    string  public name ;\n    string  public symbol  ;\n    uint256 public totalSupply; // 1 million tokens\n    uint8   public decimals ;\n    address private _owner;\n    event Transfer(\n        address indexed _from,\n        address indexed _to,\n        uint256 _value\n    );\n\n    event Approval(\n        address indexed _owner,\n        address indexed _spender,\n        uint256 _value\n    );\n\n    mapping(address => uint256) public balanceOf;\n    mapping(address => mapping(address => uint256)) public allowance;\n    mapping(address => bool) public whitelist;\n\n   \n     function initialize() external{ \n          balanceOf[msg.sender] = totalSupply; \n          name = \"DApp Token\";\n          symbol = \"DAPP\";\n          totalSupply = 1000000000000000000000000; // 1 million tokens\n          decimals = 18;\n          _owner = _msgSender();\n    \n     }\n\n    function transfer(address _to, uint256 _value) public returns (bool success) {\n        require(balanceOf[msg.sender] >= _value);\n        balanceOf[msg.sender] -= _value;\n        balanceOf[_to] += _value;\n        emit Transfer(msg.sender, _to, _value);\n        return true;\n    }\n\n    function approve(address _spender, uint256 _value) public returns (bool success) {\n        allowance[msg.sender][_spender] = _value;\n        emit Approval(msg.sender, _spender, _value);\n        return true;\n    }\n\n    function transferFromfunction(address _from, address _to, uint256 _value) public returns (bool success) {\n        require(_value <= balanceOf[_from]);\n        require(_value <= allowance[_from][msg.sender]);\n        balanceOf[_from] -= _value;\n        balanceOf[_to] += _value;\n        allowance[_from][msg.sender] -= _value;\n        emit Transfer(_from, _to, _value);\n        return true;\n    }\n\n      function addWhitelist(address _newEntry) external onlyOwner {\n    whitelist[_newEntry] = true;\n  }\n    \n  function removeWhitelist(address _newEntry) external onlyOwner {\n    require(whitelist[_newEntry], \"Previous not in whitelist\");\n    whitelist[_newEntry] = false;\n  }\n  function verifyUser(address _whitelistedAddress) public view returns(bool) {\n    bool userIsWhitelisted = whitelist[_whitelistedAddress];\n    return userIsWhitelisted;\n}\nfunction _msgSender() internal view virtual returns (address) {\n        return msg.sender;\n    }\n    // upgraded with these functions \nfunction f1() internal view virtual returns (uint) {\n        return 1;\n    }\n    // upgraded with these functions \n\n    function f2() internal view virtual returns (uint) {\n        return 2;\n    }\nmodifier isWhitelisted() {\n  require(whitelist[_msgSender()], \"You need to be whitelisted\");\n  _;\n}\n   modifier onlyOwner() {\n        require(_owner == _msgSender(), \"Ownable: caller is not the owner\");\n        _;\n    }\n}\n\n\n \n ",
  "sourcePath": "/Users/invozone/Documents/umer/untitled folder/Umer_Saleem/Task1/contracts/Tv1.sol",
  "compiler": {
    "name": "solc",
    "version": "0.8.16+commit.07a7930e.Emscripten.clang"
  },
  "schemaVersion": "3.4.9",
  "updatedAt": "2022-10-22T12:03:45.350Z",
  "networkType": "ethereum",
  "devdoc": {
    "kind": "dev",
    "methods": {},
    "version": 1
  },
  "userdoc": {
    "kind": "user",
    "methods": {},
    "version": 1
  }
}