{
  "contractName": "Tv2",
  "abi": [
    {
      "anonymous": false,
      "inputs": [
        {
          "indexed": true,
          "internalType": "address",
          "name": "_owner",
          "type": "address"
        },
        {
          "indexed": true,
          "internalType": "address",
          "name": "_spender",
          "type": "address"
        },
        {
          "indexed": false,
          "internalType": "uint256",
          "name": "_value",
          "type": "uint256"
        }
      ],
      "name": "Approval",
      "type": "event"
    },
    {
      "anonymous": false,
      "inputs": [
        {
          "indexed": true,
          "internalType": "address",
          "name": "_from",
          "type": "address"
        },
        {
          "indexed": true,
          "internalType": "address",
          "name": "_to",
          "type": "address"
        },
        {
          "indexed": false,
          "internalType": "uint256",
          "name": "_value",
          "type": "uint256"
        }
      ],
      "name": "Transfer",
      "type": "event"
    },
    {
      "inputs": [
        {
          "internalType": "address",
          "name": "",
          "type": "address"
        },
        {
          "internalType": "address",
          "name": "",
          "type": "address"
        }
      ],
      "name": "allowance",
      "outputs": [
        {
          "internalType": "uint256",
          "name": "",
          "type": "uint256"
        }
      ],
      "stateMutability": "view",
      "type": "function"
    },
    {
      "inputs": [
        {
          "internalType": "address",
          "name": "",
          "type": "address"
        }
      ],
      "name": "balanceOf",
      "outputs": [
        {
          "internalType": "uint256",
          "name": "",
          "type": "uint256"
        }
      ],
      "stateMutability": "view",
      "type": "function"
    },
    {
      "inputs": [],
      "name": "decimals",
      "outputs": [
        {
          "internalType": "uint8",
          "name": "",
          "type": "uint8"
        }
      ],
      "stateMutability": "view",
      "type": "function"
    },
    {
      "inputs": [],
      "name": "name",
      "outputs": [
        {
          "internalType": "string",
          "name": "",
          "type": "string"
        }
      ],
      "stateMutability": "view",
      "type": "function"
    },
    {
      "inputs": [],
      "name": "symbol",
      "outputs": [
        {
          "internalType": "string",
          "name": "",
          "type": "string"
        }
      ],
      "stateMutability": "view",
      "type": "function"
    },
    {
      "inputs": [],
      "name": "totalSupply",
      "outputs": [
        {
          "internalType": "uint256",
          "name": "",
          "type": "uint256"
        }
      ],
      "stateMutability": "view",
      "type": "function"
    },
    {
      "inputs": [
        {
          "internalType": "address",
          "name": "",
          "type": "address"
        }
      ],
      "name": "whitelist",
      "outputs": [
        {
          "internalType": "bool",
          "name": "",
          "type": "bool"
        }
      ],
      "stateMutability": "view",
      "type": "function"
    },
    {
      "inputs": [
        {
          "internalType": "address",
          "name": "_to",
          "type": "address"
        },
        {
          "internalType": "uint256",
          "name": "_value",
          "type": "uint256"
        }
      ],
      "name": "transfer",
      "outputs": [
        {
          "internalType": "bool",
          "name": "success",
          "type": "bool"
        }
      ],
      "stateMutability": "nonpayable",
      "type": "function"
    },
    {
      "inputs": [
        {
          "internalType": "address",
          "name": "_spender",
          "type": "address"
        },
        {
          "internalType": "uint256",
          "name": "_value",
          "type": "uint256"
        }
      ],
      "name": "approve",
      "outputs": [
        {
          "internalType": "bool",
          "name": "success",
          "type": "bool"
        }
      ],
      "stateMutability": "nonpayable",
      "type": "function"
    },
    {
      "inputs": [
        {
          "internalType": "address",
          "name": "_newEntry",
          "type": "address"
        }
      ],
      "name": "addWhitelist",
      "outputs": [],
      "stateMutability": "nonpayable",
      "type": "function"
    },
    {
      "inputs": [
        {
          "internalType": "address",
          "name": "_newEntry",
          "type": "address"
        }
      ],
      "name": "removeWhitelist",
      "outputs": [],
      "stateMutability": "nonpayable",
      "type": "function"
    },
    {
      "inputs": [
        {
          "internalType": "address",
          "name": "_whitelistedAddress",
          "type": "address"
        }
      ],
      "name": "verifyUser",
      "outputs": [
        {
          "internalType": "bool",
          "name": "",
          "type": "bool"
        }
      ],
      "stateMutability": "view",
      "type": "function"
    }
  ],
  "bytecode": "0x608060405234801561001057600080fd5b50610ddd806100206000396000f3fe608060405234801561001057600080fd5b50600436106100b45760003560e01c806378c8cda71161007157806378c8cda7146101a357806395d89b41146101bf5780639b19251a146101dd578063a9059cbb1461020d578063dd62ed3e1461023d578063f80f5dd51461026d576100b4565b806306fdde03146100b9578063095ea7b3146100d757806318160ddd14610107578063313ce567146101255780634d8131201461014357806370a0823114610173575b600080fd5b6100c1610289565b6040516100ce91906109d9565b60405180910390f35b6100f160048036038101906100ec9190610a94565b610317565b6040516100fe9190610aef565b60405180910390f35b61010f610409565b60405161011c9190610b19565b60405180910390f35b61012d61040f565b60405161013a9190610b50565b60405180910390f35b61015d60048036038101906101589190610b6b565b610422565b60405161016a9190610aef565b60405180910390f35b61018d60048036038101906101889190610b6b565b61047d565b60405161019a9190610b19565b60405180910390f35b6101bd60048036038101906101b89190610b6b565b610495565b005b6101c7610613565b6040516101d491906109d9565b60405180910390f35b6101f760048036038101906101f29190610b6b565b6106a1565b6040516102049190610aef565b60405180910390f35b61022760048036038101906102229190610a94565b6106c1565b6040516102349190610aef565b60405180910390f35b61025760048036038101906102529190610b98565b61082a565b6040516102649190610b19565b60405180910390f35b61028760048036038101906102829190610b6b565b61084f565b005b6000805461029690610c07565b80601f01602080910402602001604051908101604052809291908181526020018280546102c290610c07565b801561030f5780601f106102e45761010080835404028352916020019161030f565b820191906000526020600020905b8154815290600101906020018083116102f257829003601f168201915b505050505081565b600081600560003373ffffffffffffffffffffffffffffffffffffffff1673ffffffffffffffffffffffffffffffffffffffff16815260200190815260200160002060008573ffffffffffffffffffffffffffffffffffffffff1673ffffffffffffffffffffffffffffffffffffffff168152602001908152602001600020819055508273ffffffffffffffffffffffffffffffffffffffff163373ffffffffffffffffffffffffffffffffffffffff167f8c5be1e5ebec7d5bd14f71427d1e84f3dd0314c0f7b2291e5b200ac8c7c3b925846040516103f79190610b19565b60405180910390a36001905092915050565b60025481565b600360009054906101000a900460ff1681565b600080600660008473ffffffffffffffffffffffffffffffffffffffff1673ffffffffffffffffffffffffffffffffffffffff16815260200190815260200160002060009054906101000a900460ff16905080915050919050565b60046020528060005260406000206000915090505481565b61049d610941565b73ffffffffffffffffffffffffffffffffffffffff16600360019054906101000a900473ffffffffffffffffffffffffffffffffffffffff1673ffffffffffffffffffffffffffffffffffffffff161461052c576040517f08c379a000000000000000000000000000000000000000000000000000000000815260040161052390610c84565b60405180910390fd5b600660008273ffffffffffffffffffffffffffffffffffffffff1673ffffffffffffffffffffffffffffffffffffffff16815260200190815260200160002060009054906101000a900460ff166105b8576040517f08c379a00000000000000000000000000000000000000000000000000000000081526004016105af90610cf0565b60405180910390fd5b6000600660008373ffffffffffffffffffffffffffffffffffffffff1673ffffffffffffffffffffffffffffffffffffffff16815260200190815260200160002060006101000a81548160ff02191690831515021790555050565b6001805461062090610c07565b80601f016020809104026020016040519081016040528092919081815260200182805461064c90610c07565b80156106995780601f1061066e57610100808354040283529160200191610699565b820191906000526020600020905b81548152906001019060200180831161067c57829003601f168201915b505050505081565b60066020528060005260406000206000915054906101000a900460ff1681565b600081600460003373ffffffffffffffffffffffffffffffffffffffff1673ffffffffffffffffffffffffffffffffffffffff16815260200190815260200160002054101561070f57600080fd5b81600460003373ffffffffffffffffffffffffffffffffffffffff1673ffffffffffffffffffffffffffffffffffffffff168152602001908152602001600020600082825461075e9190610d3f565b9250508190555081600460008573ffffffffffffffffffffffffffffffffffffffff1673ffffffffffffffffffffffffffffffffffffffff16815260200190815260200160002060008282546107b49190610d73565b925050819055508273ffffffffffffffffffffffffffffffffffffffff163373ffffffffffffffffffffffffffffffffffffffff167fddf252ad1be2c89b69c2b068fc378daa952ba7f163c4a11628f55a4df523b3ef846040516108189190610b19565b60405180910390a36001905092915050565b6005602052816000526040600020602052806000526040600020600091509150505481565b610857610941565b73ffffffffffffffffffffffffffffffffffffffff16600360019054906101000a900473ffffffffffffffffffffffffffffffffffffffff1673ffffffffffffffffffffffffffffffffffffffff16146108e6576040517f08c379a00000000000000000000000000000000000000000000000000000000081526004016108dd90610c84565b60405180910390fd5b6001600660008373ffffffffffffffffffffffffffffffffffffffff1673ffffffffffffffffffffffffffffffffffffffff16815260200190815260200160002060006101000a81548160ff02191690831515021790555050565b600033905090565b600081519050919050565b600082825260208201905092915050565b60005b83811015610983578082015181840152602081019050610968565b60008484015250505050565b6000601f19601f8301169050919050565b60006109ab82610949565b6109b58185610954565b93506109c5818560208601610965565b6109ce8161098f565b840191505092915050565b600060208201905081810360008301526109f381846109a0565b905092915050565b600080fd5b600073ffffffffffffffffffffffffffffffffffffffff82169050919050565b6000610a2b82610a00565b9050919050565b610a3b81610a20565b8114610a4657600080fd5b50565b600081359050610a5881610a32565b92915050565b6000819050919050565b610a7181610a5e565b8114610a7c57600080fd5b50565b600081359050610a8e81610a68565b92915050565b60008060408385031215610aab57610aaa6109fb565b5b6000610ab985828601610a49565b9250506020610aca85828601610a7f565b9150509250929050565b60008115159050919050565b610ae981610ad4565b82525050565b6000602082019050610b046000830184610ae0565b92915050565b610b1381610a5e565b82525050565b6000602082019050610b2e6000830184610b0a565b92915050565b600060ff82169050919050565b610b4a81610b34565b82525050565b6000602082019050610b656000830184610b41565b92915050565b600060208284031215610b8157610b806109fb565b5b6000610b8f84828501610a49565b91505092915050565b60008060408385031215610baf57610bae6109fb565b5b6000610bbd85828601610a49565b9250506020610bce85828601610a49565b9150509250929050565b7f4e487b7100000000000000000000000000000000000000000000000000000000600052602260045260246000fd5b60006002820490506001821680610c1f57607f821691505b602082108103610c3257610c31610bd8565b5b50919050565b7f4f776e61626c653a2063616c6c6572206973206e6f7420746865206f776e6572600082015250565b6000610c6e602083610954565b9150610c7982610c38565b602082019050919050565b60006020820190508181036000830152610c9d81610c61565b9050919050565b7f50726576696f7573206e6f7420696e2077686974656c69737400000000000000600082015250565b6000610cda601983610954565b9150610ce582610ca4565b602082019050919050565b60006020820190508181036000830152610d0981610ccd565b9050919050565b7f4e487b7100000000000000000000000000000000000000000000000000000000600052601160045260246000fd5b6000610d4a82610a5e565b9150610d5583610a5e565b9250828203905081811115610d6d57610d6c610d10565b5b92915050565b6000610d7e82610a5e565b9150610d8983610a5e565b9250828201905080821115610da157610da0610d10565b5b9291505056fea264697066735822122045dd5bd94036ec1404cd21015fe1fa327e8f4c8e115d184adb9b4c712e3755e064736f6c63430008100033",
  "immutableReferences": {},
  "source": "// SPDX-License-Identifier: MIT\n\n  \npragma solidity ^0.8.3;\ncontract Tv2   {\n    string  public name ;\n    string  public symbol  ;\n    uint256 public totalSupply; // 1 million tokens\n    uint8   public decimals ;\n    address private _owner;\n    event Transfer(\n        address indexed _from,\n        address indexed _to,\n        uint256 _value\n    );\n\n    event Approval(\n        address indexed _owner,\n        address indexed _spender,\n        uint256 _value\n    );\n\n    mapping(address => uint256) public balanceOf;\n    mapping(address => mapping(address => uint256)) public allowance;\n    mapping(address => bool) public whitelist;\n\n   \n    //  function initialize() external{ \n    //       balanceOf[msg.sender] = totalSupply; \n    //       name = \"DApp Token\";\n    //       symbol = \"DAPP\";\n    //       totalSupply = 1000000000000000000000000; // 1 million tokens\n    //       decimals = 18;\n    //       _owner = _msgSender();\n    \n    //  }\n\n    function transfer(address _to, uint256 _value) public returns (bool success) {\n        require(balanceOf[msg.sender] >= _value);\n        balanceOf[msg.sender] -= _value;\n        balanceOf[_to] += _value;\n        emit Transfer(msg.sender, _to, _value);\n        return true;\n    }\n\n    function approve(address _spender, uint256 _value) public returns (bool success) {\n        allowance[msg.sender][_spender] = _value;\n        emit Approval(msg.sender, _spender, _value);\n        return true;\n    }\n\n    // function transferFrom(address _from, address _to, uint256 _value) public returns (bool success) {\n    //     require(_value <= balanceOf[_from]);\n    //     require(_value <= allowance[_from][msg.sender]);\n    //     balanceOf[_from] -= _value;\n    //     balanceOf[_to] += _value;\n    //     allowance[_from][msg.sender] -= _value;\n    //     emit Transfer(_from, _to, _value);\n    //     return true;\n    // }\n\n      function addWhitelist(address _newEntry) external onlyOwner {\n    whitelist[_newEntry] = true;\n  }\n    \n  function removeWhitelist(address _newEntry) external onlyOwner {\n    require(whitelist[_newEntry], \"Previous not in whitelist\");\n    whitelist[_newEntry] = false;\n  }\n  function verifyUser(address _whitelistedAddress) public view returns(bool) {\n    bool userIsWhitelisted = whitelist[_whitelistedAddress];\n    return userIsWhitelisted;\n}\nfunction _msgSender() internal view virtual returns (address) {\n        return msg.sender;\n    }\n    // upgraded with these functions \nfunction f1() internal view virtual returns (uint) {\n        return 1;\n    }\n    // upgraded with these functions \n\n    function f2() internal view virtual returns (uint) {\n        return 2;\n    }\n\n  \nmodifier isWhitelisted() {\n  require(whitelist[_msgSender()], \"You need to be whitelisted\");\n  _;\n}\n   modifier onlyOwner() {\n        require(_owner == _msgSender(), \"Ownable: caller is not the owner\");\n        _;\n    }\n}\n\n\n \n ",
  "sourcePath": "/Users/invozone/Documents/umer/untitled folder/Umer_Saleem/Task1/contracts/Tv2.sol",
  "compiler": {
    "name": "solc",
    "version": "0.8.16+commit.07a7930e.Emscripten.clang"
  },
  "schemaVersion": "3.4.9",
  "updatedAt": "2022-10-22T12:03:45.358Z",
  "networkType": "ethereum",
  "devdoc": {
    "kind": "dev",
    "methods": {},
    "version": 1
  },
  "userdoc": {
    "kind": "user",
    "methods": {},
    "version": 1
  }
}