{
  "contractName": "Tv3",
  "abi": [
    {
      "anonymous": false,
      "inputs": [
        {
          "indexed": true,
          "internalType": "address",
          "name": "_owner",
          "type": "address"
        },
        {
          "indexed": true,
          "internalType": "address",
          "name": "_spender",
          "type": "address"
        },
        {
          "indexed": false,
          "internalType": "uint256",
          "name": "_value",
          "type": "uint256"
        }
      ],
      "name": "Approval",
      "type": "event"
    },
    {
      "anonymous": false,
      "inputs": [
        {
          "indexed": true,
          "internalType": "address",
          "name": "_from",
          "type": "address"
        },
        {
          "indexed": true,
          "internalType": "address",
          "name": "_to",
          "type": "address"
        },
        {
          "indexed": false,
          "internalType": "uint256",
          "name": "_value",
          "type": "uint256"
        }
      ],
      "name": "Transfer",
      "type": "event"
    },
    {
      "inputs": [
        {
          "internalType": "address",
          "name": "",
          "type": "address"
        },
        {
          "internalType": "address",
          "name": "",
          "type": "address"
        }
      ],
      "name": "allowance",
      "outputs": [
        {
          "internalType": "uint256",
          "name": "",
          "type": "uint256"
        }
      ],
      "stateMutability": "view",
      "type": "function",
      "constant": true
    },
    {
      "inputs": [
        {
          "internalType": "address",
          "name": "",
          "type": "address"
        }
      ],
      "name": "balanceOf",
      "outputs": [
        {
          "internalType": "uint256",
          "name": "",
          "type": "uint256"
        }
      ],
      "stateMutability": "view",
      "type": "function",
      "constant": true
    },
    {
      "inputs": [],
      "name": "decimals",
      "outputs": [
        {
          "internalType": "uint8",
          "name": "",
          "type": "uint8"
        }
      ],
      "stateMutability": "view",
      "type": "function",
      "constant": true
    },
    {
      "inputs": [],
      "name": "name",
      "outputs": [
        {
          "internalType": "string",
          "name": "",
          "type": "string"
        }
      ],
      "stateMutability": "view",
      "type": "function",
      "constant": true
    },
    {
      "inputs": [],
      "name": "symbol",
      "outputs": [
        {
          "internalType": "string",
          "name": "",
          "type": "string"
        }
      ],
      "stateMutability": "view",
      "type": "function",
      "constant": true
    },
    {
      "inputs": [],
      "name": "totalSupply",
      "outputs": [
        {
          "internalType": "uint256",
          "name": "",
          "type": "uint256"
        }
      ],
      "stateMutability": "view",
      "type": "function",
      "constant": true
    },
    {
      "inputs": [
        {
          "internalType": "address",
          "name": "",
          "type": "address"
        }
      ],
      "name": "whitelist",
      "outputs": [
        {
          "internalType": "bool",
          "name": "",
          "type": "bool"
        }
      ],
      "stateMutability": "view",
      "type": "function",
      "constant": true
    },
    {
      "inputs": [
        {
          "internalType": "address",
          "name": "_to",
          "type": "address"
        },
        {
          "internalType": "uint256",
          "name": "_value",
          "type": "uint256"
        }
      ],
      "name": "transfer",
      "outputs": [
        {
          "internalType": "bool",
          "name": "success",
          "type": "bool"
        }
      ],
      "stateMutability": "nonpayable",
      "type": "function"
    },
    {
      "inputs": [
        {
          "internalType": "address",
          "name": "_spender",
          "type": "address"
        },
        {
          "internalType": "uint256",
          "name": "_value",
          "type": "uint256"
        }
      ],
      "name": "approve",
      "outputs": [
        {
          "internalType": "bool",
          "name": "success",
          "type": "bool"
        }
      ],
      "stateMutability": "nonpayable",
      "type": "function"
    },
    {
      "inputs": [
        {
          "internalType": "address",
          "name": "_from",
          "type": "address"
        },
        {
          "internalType": "address",
          "name": "_to",
          "type": "address"
        },
        {
          "internalType": "uint256",
          "name": "_value",
          "type": "uint256"
        }
      ],
      "name": "transferFromFunction",
      "outputs": [
        {
          "internalType": "bool",
          "name": "success",
          "type": "bool"
        }
      ],
      "stateMutability": "nonpayable",
      "type": "function"
    },
    {
      "inputs": [
        {
          "internalType": "address",
          "name": "_newEntry",
          "type": "address"
        }
      ],
      "name": "addWhitelist",
      "outputs": [],
      "stateMutability": "nonpayable",
      "type": "function"
    },
    {
      "inputs": [
        {
          "internalType": "address",
          "name": "_newEntry",
          "type": "address"
        }
      ],
      "name": "removeWhitelist",
      "outputs": [],
      "stateMutability": "nonpayable",
      "type": "function"
    },
    {
      "inputs": [
        {
          "internalType": "address",
          "name": "_whitelistedAddress",
          "type": "address"
        }
      ],
      "name": "verifyUser",
      "outputs": [
        {
          "internalType": "bool",
          "name": "",
          "type": "bool"
        }
      ],
      "stateMutability": "view",
      "type": "function",
      "constant": true
    }
  ],
  "bytecode": "0x608060405234801561001057600080fd5b50611101806100206000396000f3fe608060405234801561001057600080fd5b50600436106100cf5760003560e01c806378c8cda71161008c5780639b19251a116100665780639b19251a14610228578063a9059cbb14610258578063dd62ed3e14610288578063f80f5dd5146102b8576100cf565b806378c8cda7146101be578063940cdaa1146101da57806395d89b411461020a576100cf565b806306fdde03146100d4578063095ea7b3146100f257806318160ddd14610122578063313ce567146101405780634d8131201461015e57806370a082311461018e575b600080fd5b6100dc6102d4565b6040516100e99190610caa565b60405180910390f35b61010c60048036038101906101079190610d65565b610362565b6040516101199190610dc0565b60405180910390f35b61012a610454565b6040516101379190610dea565b60405180910390f35b61014861045a565b6040516101559190610e21565b60405180910390f35b61017860048036038101906101739190610e3c565b61046d565b6040516101859190610dc0565b60405180910390f35b6101a860048036038101906101a39190610e3c565b6104c8565b6040516101b59190610dea565b60405180910390f35b6101d860048036038101906101d39190610e3c565b6104e0565b005b6101f460048036038101906101ef9190610e69565b61065e565b6040516102019190610dc0565b60405180910390f35b6102126108e4565b60405161021f9190610caa565b60405180910390f35b610242600480360381019061023d9190610e3c565b610972565b60405161024f9190610dc0565b60405180910390f35b610272600480360381019061026d9190610d65565b610992565b60405161027f9190610dc0565b60405180910390f35b6102a2600480360381019061029d9190610ebc565b610afb565b6040516102af9190610dea565b60405180910390f35b6102d260048036038101906102cd9190610e3c565b610b20565b005b600080546102e190610f2b565b80601f016020809104026020016040519081016040528092919081815260200182805461030d90610f2b565b801561035a5780601f1061032f5761010080835404028352916020019161035a565b820191906000526020600020905b81548152906001019060200180831161033d57829003601f168201915b505050505081565b600081600560003373ffffffffffffffffffffffffffffffffffffffff1673ffffffffffffffffffffffffffffffffffffffff16815260200190815260200160002060008573ffffffffffffffffffffffffffffffffffffffff1673ffffffffffffffffffffffffffffffffffffffff168152602001908152602001600020819055508273ffffffffffffffffffffffffffffffffffffffff163373ffffffffffffffffffffffffffffffffffffffff167f8c5be1e5ebec7d5bd14f71427d1e84f3dd0314c0f7b2291e5b200ac8c7c3b925846040516104429190610dea565b60405180910390a36001905092915050565b60025481565b600360009054906101000a900460ff1681565b600080600660008473ffffffffffffffffffffffffffffffffffffffff1673ffffffffffffffffffffffffffffffffffffffff16815260200190815260200160002060009054906101000a900460ff16905080915050919050565b60046020528060005260406000206000915090505481565b6104e8610c12565b73ffffffffffffffffffffffffffffffffffffffff16600360019054906101000a900473ffffffffffffffffffffffffffffffffffffffff1673ffffffffffffffffffffffffffffffffffffffff1614610577576040517f08c379a000000000000000000000000000000000000000000000000000000000815260040161056e90610fa8565b60405180910390fd5b600660008273ffffffffffffffffffffffffffffffffffffffff1673ffffffffffffffffffffffffffffffffffffffff16815260200190815260200160002060009054906101000a900460ff16610603576040517f08c379a00000000000000000000000000000000000000000000000000000000081526004016105fa90611014565b60405180910390fd5b6000600660008373ffffffffffffffffffffffffffffffffffffffff1673ffffffffffffffffffffffffffffffffffffffff16815260200190815260200160002060006101000a81548160ff02191690831515021790555050565b6000600460008573ffffffffffffffffffffffffffffffffffffffff1673ffffffffffffffffffffffffffffffffffffffff168152602001908152602001600020548211156106ac57600080fd5b600560008573ffffffffffffffffffffffffffffffffffffffff1673ffffffffffffffffffffffffffffffffffffffff16815260200190815260200160002060003373ffffffffffffffffffffffffffffffffffffffff1673ffffffffffffffffffffffffffffffffffffffff1681526020019081526020016000205482111561073557600080fd5b81600460008673ffffffffffffffffffffffffffffffffffffffff1673ffffffffffffffffffffffffffffffffffffffff16815260200190815260200160002060008282546107849190611063565b9250508190555081600460008573ffffffffffffffffffffffffffffffffffffffff1673ffffffffffffffffffffffffffffffffffffffff16815260200190815260200160002060008282546107da9190611097565b9250508190555081600560008673ffffffffffffffffffffffffffffffffffffffff1673ffffffffffffffffffffffffffffffffffffffff16815260200190815260200160002060003373ffffffffffffffffffffffffffffffffffffffff1673ffffffffffffffffffffffffffffffffffffffff168152602001908152602001600020600082825461086d9190611063565b925050819055508273ffffffffffffffffffffffffffffffffffffffff168473ffffffffffffffffffffffffffffffffffffffff167fddf252ad1be2c89b69c2b068fc378daa952ba7f163c4a11628f55a4df523b3ef846040516108d19190610dea565b60405180910390a3600190509392505050565b600180546108f190610f2b565b80601f016020809104026020016040519081016040528092919081815260200182805461091d90610f2b565b801561096a5780601f1061093f5761010080835404028352916020019161096a565b820191906000526020600020905b81548152906001019060200180831161094d57829003601f168201915b505050505081565b60066020528060005260406000206000915054906101000a900460ff1681565b600081600460003373ffffffffffffffffffffffffffffffffffffffff1673ffffffffffffffffffffffffffffffffffffffff1681526020019081526020016000205410156109e057600080fd5b81600460003373ffffffffffffffffffffffffffffffffffffffff1673ffffffffffffffffffffffffffffffffffffffff1681526020019081526020016000206000828254610a2f9190611063565b9250508190555081600460008573ffffffffffffffffffffffffffffffffffffffff1673ffffffffffffffffffffffffffffffffffffffff1681526020019081526020016000206000828254610a859190611097565b925050819055508273ffffffffffffffffffffffffffffffffffffffff163373ffffffffffffffffffffffffffffffffffffffff167fddf252ad1be2c89b69c2b068fc378daa952ba7f163c4a11628f55a4df523b3ef84604051610ae99190610dea565b60405180910390a36001905092915050565b6005602052816000526040600020602052806000526040600020600091509150505481565b610b28610c12565b73ffffffffffffffffffffffffffffffffffffffff16600360019054906101000a900473ffffffffffffffffffffffffffffffffffffffff1673ffffffffffffffffffffffffffffffffffffffff1614610bb7576040517f08c379a0000000000000000000000000000000000000000000000000000000008152600401610bae90610fa8565b60405180910390fd5b6001600660008373ffffffffffffffffffffffffffffffffffffffff1673ffffffffffffffffffffffffffffffffffffffff16815260200190815260200160002060006101000a81548160ff02191690831515021790555050565b600033905090565b600081519050919050565b600082825260208201905092915050565b60005b83811015610c54578082015181840152602081019050610c39565b60008484015250505050565b6000601f19601f8301169050919050565b6000610c7c82610c1a565b610c868185610c25565b9350610c96818560208601610c36565b610c9f81610c60565b840191505092915050565b60006020820190508181036000830152610cc48184610c71565b905092915050565b600080fd5b600073ffffffffffffffffffffffffffffffffffffffff82169050919050565b6000610cfc82610cd1565b9050919050565b610d0c81610cf1565b8114610d1757600080fd5b50565b600081359050610d2981610d03565b92915050565b6000819050919050565b610d4281610d2f565b8114610d4d57600080fd5b50565b600081359050610d5f81610d39565b92915050565b60008060408385031215610d7c57610d7b610ccc565b5b6000610d8a85828601610d1a565b9250506020610d9b85828601610d50565b9150509250929050565b60008115159050919050565b610dba81610da5565b82525050565b6000602082019050610dd56000830184610db1565b92915050565b610de481610d2f565b82525050565b6000602082019050610dff6000830184610ddb565b92915050565b600060ff82169050919050565b610e1b81610e05565b82525050565b6000602082019050610e366000830184610e12565b92915050565b600060208284031215610e5257610e51610ccc565b5b6000610e6084828501610d1a565b91505092915050565b600080600060608486031215610e8257610e81610ccc565b5b6000610e9086828701610d1a565b9350506020610ea186828701610d1a565b9250506040610eb286828701610d50565b9150509250925092565b60008060408385031215610ed357610ed2610ccc565b5b6000610ee185828601610d1a565b9250506020610ef285828601610d1a565b9150509250929050565b7f4e487b7100000000000000000000000000000000000000000000000000000000600052602260045260246000fd5b60006002820490506001821680610f4357607f821691505b602082108103610f5657610f55610efc565b5b50919050565b7f4f776e61626c653a2063616c6c6572206973206e6f7420746865206f776e6572600082015250565b6000610f92602083610c25565b9150610f9d82610f5c565b602082019050919050565b60006020820190508181036000830152610fc181610f85565b9050919050565b7f50726576696f7573206e6f7420696e2077686974656c69737400000000000000600082015250565b6000610ffe601983610c25565b915061100982610fc8565b602082019050919050565b6000602082019050818103600083015261102d81610ff1565b9050919050565b7f4e487b7100000000000000000000000000000000000000000000000000000000600052601160045260246000fd5b600061106e82610d2f565b915061107983610d2f565b925082820390508181111561109157611090611034565b5b92915050565b60006110a282610d2f565b91506110ad83610d2f565b92508282019050808211156110c5576110c4611034565b5b9291505056fea26469706673582212201429f5cfc58c02cf233cce60e2c855a4db54cfdae496217264a8fadd6be228a864736f6c63430008100033",
  "immutableReferences": {},
  "source": "// SPDX-License-Identifier: MIT\n\n  \npragma solidity ^0.8.3;\ncontract Tv3   {\n    string  public name ;\n    string  public symbol  ;\n    uint256 public totalSupply; // 1 million tokens\n    uint8   public decimals ;\n    address private _owner;\n    event Transfer(\n        address indexed _from,\n        address indexed _to,\n        uint256 _value\n    );\n\n    event Approval(\n        address indexed _owner,\n        address indexed _spender,\n        uint256 _value\n    );\n\n    mapping(address => uint256) public balanceOf;\n    mapping(address => mapping(address => uint256)) public allowance;\n    mapping(address => bool) public whitelist;\n\n   \n    //  function initialize() external{ \n    //       balanceOf[msg.sender] = totalSupply; \n    //       name = \"DApp Token\";\n    //       symbol = \"DAPP\";\n    //       totalSupply = 1000000000000000000000000; // 1 million tokens\n    //       decimals = 18;\n    //       _owner = _msgSender();\n    \n    //  }\n\n    function transfer(address _to, uint256 _value) public returns (bool success) {\n        require(balanceOf[msg.sender] >= _value);\n        balanceOf[msg.sender] -= _value;\n        balanceOf[_to] += _value;\n        emit Transfer(msg.sender, _to, _value);\n        return true;\n    }\n\n    function approve(address _spender, uint256 _value) public returns (bool success) {\n        allowance[msg.sender][_spender] = _value;\n        emit Approval(msg.sender, _spender, _value);\n        return true;\n    }\n\n   function transferFromFunction(address _from, address _to, uint256 _value) public returns (bool success) {\n        require(_value <= balanceOf[_from]);\n        require(_value <= allowance[_from][msg.sender]);\n        balanceOf[_from] -= _value;\n        balanceOf[_to] += _value;\n        allowance[_from][msg.sender] -= _value;\n        emit Transfer(_from, _to, _value);\n        return true;\n    }\n\n\n      function addWhitelist(address _newEntry) external onlyOwner {\n    whitelist[_newEntry] = true;\n  }\n    \n  function removeWhitelist(address _newEntry) external onlyOwner {\n    require(whitelist[_newEntry], \"Previous not in whitelist\");\n    whitelist[_newEntry] = false;\n  }\n  function verifyUser(address _whitelistedAddress) public view returns(bool) {\n    bool userIsWhitelisted = whitelist[_whitelistedAddress];\n    return userIsWhitelisted;\n}\nfunction _msgSender() internal view virtual returns (address) {\n        return msg.sender;\n    }\n    // upgraded with these functions \nfunction f1() internal view virtual returns (uint) {\n        return 1;\n    }\n    // upgraded with these functions \n\n    function f2() internal view virtual returns (uint) {\n        return 2;\n    }\n\n  \nmodifier isWhitelisted() {\n  require(whitelist[_msgSender()], \"You need to be whitelisted\");\n  _;\n}\n   modifier onlyOwner() {\n        require(_owner == _msgSender(), \"Ownable: caller is not the owner\");\n        _;\n    }\n}\n\n\n \n ",
  "sourcePath": "/Users/invozone/Documents/umer/untitled folder/Umer_Saleem/Task1/contracts/Tv3.sol",
  "compiler": {
    "name": "solc",
    "version": "0.8.16+commit.07a7930e.Emscripten.clang"
  },
  "schemaVersion": "3.4.9",
  "updatedAt": "2022-10-22T12:03:45.366Z",
  "networkType": "ethereum",
  "devdoc": {
    "kind": "dev",
    "methods": {},
    "version": 1
  },
  "userdoc": {
    "kind": "user",
    "methods": {},
    "version": 1
  }
}